{"contracts/lottery.sol":{"lottery":{"abi":[{"inputs":[{"internalType":"uint64","name":"subscriptionId","type":"uint64"}],"stateMutability":"nonpayable","type":"constructor"},{"inputs":[{"internalType":"address","name":"have","type":"address"},{"internalType":"address","name":"want","type":"address"}],"name":"OnlyCoordinatorCanFulfill","type":"error"},{"anonymous":false,"inputs":[{"indexed":false,"internalType":"address","name":"better","type":"address"},{"indexed":false,"internalType":"uint256","name":"counter","type":"uint256"},{"indexed":false,"internalType":"uint256","name":"randomNumber","type":"uint256"},{"indexed":false,"internalType":"uint256","name":"betNumber","type":"uint256"},{"indexed":false,"internalType":"bool","name":"isWinner","type":"bool"}],"name":"EventGetResultGameOne","type":"event"},{"anonymous":false,"inputs":[{"indexed":false,"internalType":"address","name":"better","type":"address"},{"indexed":false,"internalType":"uint256","name":"counter","type":"uint256"},{"indexed":false,"internalType":"uint256","name":"randomNumber","type":"uint256"},{"indexed":false,"internalType":"uint256","name":"reward","type":"uint256"}],"name":"EventGetResultGameTwo","type":"event"},{"inputs":[],"name":"fees","outputs":[{"internalType":"uint256","name":"","type":"uint256"}],"stateMutability":"view","type":"function"},{"inputs":[],"name":"gameNumber","outputs":[{"internalType":"uint256","name":"","type":"uint256"}],"stateMutability":"view","type":"function"},{"inputs":[],"name":"getRandomDiceNumber","outputs":[],"stateMutability":"payable","type":"function"},{"inputs":[{"internalType":"uint256","name":"requestId","type":"uint256"},{"internalType":"uint256[]","name":"randomWords","type":"uint256[]"}],"name":"rawFulfillRandomWords","outputs":[],"stateMutability":"nonpayable","type":"function"},{"inputs":[],"name":"requestCounter","outputs":[{"internalType":"uint256","name":"","type":"uint256"}],"stateMutability":"view","type":"function"},{"inputs":[{"internalType":"uint256","name":"","type":"uint256"}],"name":"rewardsArray","outputs":[{"internalType":"uint256","name":"","type":"uint256"}],"stateMutability":"view","type":"function"},{"inputs":[{"internalType":"uint256","name":"","type":"uint256"}],"name":"s_randomWords","outputs":[{"internalType":"uint256","name":"","type":"uint256"}],"stateMutability":"view","type":"function"},{"inputs":[],"name":"s_requestId","outputs":[{"internalType":"uint256","name":"","type":"uint256"}],"stateMutability":"view","type":"function"},{"inputs":[{"internalType":"uint256","name":"","type":"uint256"}],"name":"s_requestIdToAddress","outputs":[{"internalType":"address","name":"","type":"address"}],"stateMutability":"view","type":"function"},{"inputs":[],"name":"s_subscriptionId","outputs":[{"internalType":"uint64","name":"","type":"uint64"}],"stateMutability":"view","type":"function"},{"inputs":[{"internalType":"uint256","name":"_fee","type":"uint256"}],"name":"setFees","outputs":[],"stateMutability":"nonpayable","type":"function"},{"inputs":[{"internalType":"uint256","name":"number","type":"uint256"}],"name":"tryYourLuck","outputs":[],"stateMutability":"payable","type":"function"},{"inputs":[{"internalType":"uint256","name":"amount","type":"uint256"}],"name":"withdrawEther","outputs":[],"stateMutability":"nonpayable","type":"function"}],"evm":{"bytecode":{"linkReferences":{},"object":"600180546001600160a01b031916737a1bac17ccc5b313516c5e16fb24f7659aa5ebed1790557f4b09e658ed251bcafeebbc69400383d49f344ace09b9576fe248bb02c003fe9f600255600380546602000300030d406001600160501b031990911617905567016345785d8a0000600955610520604052600060a081815260c08290526702c68af0bb14000060e0526101008290526706f05b59d3b20000610120526101408290526101608290526101808290526101a08290526101c08290526101e08290526102008290526102208290526102408290526102608290526102808290526102a08290526102c0829052670b1a2bc2ec5000006102e052610300829052610320829052610340829052610360829052610380829052671bc16d674ec800006103a0526103c08290526103e08290526104008290526104208290526104408290526104608290526104808290526710a741a4627800006104a0526104c08290526104e08290526105009190915261017f90600c906024610212565b506000600d5534801561019157600080fd5b50604051610e0d380380610e0d8339810160408190526101b09161027d565b6001546001600160601b0319606082901b1660805260008054600880546001600160a01b031916331790556001600160401b03909316600160a01b026001600160e01b03199093166001600160a01b03909216919091179190911790556102ad565b828054828255906000526020600020908101928215610258579160200282015b8281111561025857825182906001600160401b0316905591602001919060010190610232565b50610264929150610268565b5090565b5b808211156102645760008155600101610269565b60006020828403121561028f57600080fd5b81516001600160401b03811681146102a657600080fd5b9392505050565b60805160601c610b3b6102d26000396000818161026701526102a90152610b3b6000f3fe6080604052600436106100a25760003560e01c80631fe543e3146100a75780633bed33ce146100c95780633d18678e146100e9578063532950f414610109578063850a040c1461013c5780638ac000211461018a578063973a814e146101c95780639af1d35a146101df578063b2ae6901146101f5578063d8d40cee146101fd578063e89e106a14610213578063f6eaffc814610229578063fabab06514610249575b600080fd5b3480156100b357600080fd5b506100c76100c236600461092b565b61025c565b005b3480156100d557600080fd5b506100c76100e43660046108f9565b6102e9565b3480156100f557600080fd5b506100c76101043660046108f9565b6103c3565b34801561011557600080fd5b506101296101243660046108f9565b6103df565b6040519081526020015b60405180910390f35b34801561014857600080fd5b506101726101573660046108f9565b6006602052600090815260409020546001600160a01b031681565b6040516001600160a01b039091168152602001610133565b34801561019657600080fd5b506000546101b190600160a01b90046001600160401b031681565b6040516001600160401b039091168152602001610133565b3480156101d557600080fd5b5061012960075481565b3480156101eb57600080fd5b5061012960095481565b6100c7610400565b34801561020957600080fd5b50610129600d5481565b34801561021f57600080fd5b5061012960055481565b34801561023557600080fd5b506101296102443660046108f9565b610444565b6100c76102573660046108f9565b610454565b336001600160a01b037f000000000000000000000000000000000000000000000000000000000000000016146102db5760405163073e64fd60e21b81523360048201526001600160a01b037f00000000000000000000000000000000000000000000000000000000000000001660248201526044015b60405180910390fd5b6102e582826104e8565b5050565b6008546001600160a01b0316331461030057600080fd5b600047116103505760405162461bcd60e51b815260206004820152601f60248201527f5468657265206973206e6f2062616c616e636520746f2077697468647261770060448201526064016102d2565b4781106103965760405162461bcd60e51b8152602060048201526014602482015273496e73756666696369656e742062616c616e636560601b60448201526064016102d2565b604051339082156108fc029083906000818181858888f193505050501580156102e5573d6000803e3d6000fd5b6008546001600160a01b031633146103da57600080fd5b600955565b600c81815481106103ef57600080fd5b600091825260209091200154905081565b6009543410156104225760405162461bcd60e51b81526004016102d290610a21565b600a80546001600160a01b031916331790556002600d556104416105c7565b50565b600481815481106103ef57600080fd5b6009543410156104765760405162461bcd60e51b81526004016102d290610a21565b6025811080156104865750600081115b6104c45760405162461bcd60e51b815260206004820152600f60248201526e024b73b30b634b210373ab6b132b91608d1b60448201526064016102d2565b600a80546001600160a01b03191633179055600b8190556001600d556102e56105c7565b6040518060400160405280600b8360008151811061050857610508610ab9565b602002602001015161051a9190610a81565b610525906002610a52565b815260200160248360018151811061053f5761053f610ab9565b60200260200101516105519190610a81565b61055c906001610a52565b905261056c906004906002610899565b50600d54600114156105b4576000600b54600460018154811061059157610591610ab9565b906000526020600020015414156105a6575060015b6105af816106b6565b505050565b600d54600214156102e5576102e561075f565b600080546002546003546040516305d3b1d360e41b81526004810192909252600160a01b83046001600160401b03166024830152600160201b810461ffff16604483015263ffffffff8082166064840152600160301b90910416608482015282916001600160a01b031690635d3b1d309060a401602060405180830381600087803b15801561065557600080fd5b505af1158015610669573d6000803e3d6000fd5b505050506040513d601f19601f8201168201806040525081019061068d9190610912565b600081815260066020526040902080546001600160a01b03191633179055600581905592915050565b600a54600754600480547f07285e801159d73ff597fe8e8df0523d831a36850c7379f3e0ab38b9d7051fe6936001600160a01b031692919060019081106106ff576106ff610ab9565b60009182526020918290200154600b54604080516001600160a01b03909616865292850193909352908301526060820152821515608082015260a0015b60405180910390a16001600760008282546107579190610a52565b909155505050565b6000600c6001600460008154811061077957610779610ab9565b906000526020600020015461078e9190610a6a565b8154811061079e5761079e610ab9565b906000526020600020015490508060001461084857600a546040516001600160a01b039091169082156108fc029083906000818181858888f193505050501580156107ed573d6000803e3d6000fd5b50600a5460075460048054600080516020610ae6833981519152936001600160a01b031692919060009061082357610823610ab9565b90600052602060002001548460405161083f94939291906109fb565b60405180910390a15b600a5460075460048054600080516020610ae6833981519152936001600160a01b031692919060009061087d5761087d610ab9565b90600052602060002001548460405161073c94939291906109fb565b8280548282559060005260206000209081019282156108d4579160200282015b828111156108d45782518255916020019190600101906108b9565b506108e09291506108e4565b5090565b5b808211156108e057600081556001016108e5565b60006020828403121561090b57600080fd5b5035919050565b60006020828403121561092457600080fd5b5051919050565b6000806040838503121561093e57600080fd5b823591506020808401356001600160401b038082111561095d57600080fd5b818601915086601f83011261097157600080fd5b81358181111561098357610983610acf565b8060051b604051601f19603f830116810181811085821117156109a8576109a8610acf565b604052828152858101935084860182860187018b10156109c757600080fd5b600095505b838610156109ea5780358552600195909501949386019386016109cc565b508096505050505050509250929050565b6001600160a01b0394909416845260208401929092526040830152606082015260800190565b602080825260179082015276536f7272792c206e65656420746f20706179206d6f726560481b604082015260600190565b60008219821115610a6557610a65610aa3565b500190565b600082821015610a7c57610a7c610aa3565b500390565b600082610a9e57634e487b7160e01b600052601260045260246000fd5b500690565b634e487b7160e01b600052601160045260246000fd5b634e487b7160e01b600052603260045260246000fd5b634e487b7160e01b600052604160045260246000fdfe7d65a677c9f5ae17458f5384db1aaf4c9faf890fce5e3c04c55c243127bd0d7ca26469706673582212200dfd1bd7a1c558d1acda2d95a2424f109a815a8f304fbc3ed62c94ef1446e11a64736f6c63430008070033","opcodes":"PUSH1 0x1 DUP1 SLOAD PUSH1 0x1 PUSH1 0x1 PUSH1 0xA0 SHL SUB NOT AND PUSH20 0x7A1BAC17CCC5B313516C5E16FB24F7659AA5EBED OR SWAP1 SSTORE PUSH32 0x4B09E658ED251BCAFEEBBC69400383D49F344ACE09B9576FE248BB02C003FE9F PUSH1 0x2 SSTORE PUSH1 0x3 DUP1 SLOAD PUSH7 0x2000300030D40 PUSH1 0x1 PUSH1 0x1 PUSH1 0x50 SHL SUB NOT SWAP1 SWAP2 AND OR SWAP1 SSTORE PUSH8 0x16345785D8A0000 PUSH1 0x9 SSTORE PUSH2 0x520 PUSH1 0x40 MSTORE PUSH1 0x0 PUSH1 0xA0 DUP2 DUP2 MSTORE PUSH1 0xC0 DUP3 SWAP1 MSTORE PUSH8 0x2C68AF0BB140000 PUSH1 0xE0 MSTORE PUSH2 0x100 DUP3 SWAP1 MSTORE PUSH8 0x6F05B59D3B20000 PUSH2 0x120 MSTORE PUSH2 0x140 DUP3 SWAP1 MSTORE PUSH2 0x160 DUP3 SWAP1 MSTORE PUSH2 0x180 DUP3 SWAP1 MSTORE PUSH2 0x1A0 DUP3 SWAP1 MSTORE PUSH2 0x1C0 DUP3 SWAP1 MSTORE PUSH2 0x1E0 DUP3 SWAP1 MSTORE PUSH2 0x200 DUP3 SWAP1 MSTORE PUSH2 0x220 DUP3 SWAP1 MSTORE PUSH2 0x240 DUP3 SWAP1 MSTORE PUSH2 0x260 DUP3 SWAP1 MSTORE PUSH2 0x280 DUP3 SWAP1 MSTORE PUSH2 0x2A0 DUP3 SWAP1 MSTORE PUSH2 0x2C0 DUP3 SWAP1 MSTORE PUSH8 0xB1A2BC2EC500000 PUSH2 0x2E0 MSTORE PUSH2 0x300 DUP3 SWAP1 MSTORE PUSH2 0x320 DUP3 SWAP1 MSTORE PUSH2 0x340 DUP3 SWAP1 MSTORE PUSH2 0x360 DUP3 SWAP1 MSTORE PUSH2 0x380 DUP3 SWAP1 MSTORE PUSH8 0x1BC16D674EC80000 PUSH2 0x3A0 MSTORE PUSH2 0x3C0 DUP3 SWAP1 MSTORE PUSH2 0x3E0 DUP3 SWAP1 MSTORE PUSH2 0x400 DUP3 SWAP1 MSTORE PUSH2 0x420 DUP3 SWAP1 MSTORE PUSH2 0x440 DUP3 SWAP1 MSTORE PUSH2 0x460 DUP3 SWAP1 MSTORE PUSH2 0x480 DUP3 SWAP1 MSTORE PUSH8 0x10A741A462780000 PUSH2 0x4A0 MSTORE PUSH2 0x4C0 DUP3 SWAP1 MSTORE PUSH2 0x4E0 DUP3 SWAP1 MSTORE PUSH2 0x500 SWAP2 SWAP1 SWAP2 MSTORE PUSH2 0x17F SWAP1 PUSH1 0xC SWAP1 PUSH1 0x24 PUSH2 0x212 JUMP JUMPDEST POP PUSH1 0x0 PUSH1 0xD SSTORE CALLVALUE DUP1 ISZERO PUSH2 0x191 JUMPI PUSH1 0x0 DUP1 REVERT JUMPDEST POP PUSH1 0x40 MLOAD PUSH2 0xE0D CODESIZE SUB DUP1 PUSH2 0xE0D DUP4 CODECOPY DUP2 ADD PUSH1 0x40 DUP2 SWAP1 MSTORE PUSH2 0x1B0 SWAP2 PUSH2 0x27D JUMP JUMPDEST PUSH1 0x1 SLOAD PUSH1 0x1 PUSH1 0x1 PUSH1 0x60 SHL SUB NOT PUSH1 0x60 DUP3 SWAP1 SHL AND PUSH1 0x80 MSTORE PUSH1 0x0 DUP1 SLOAD PUSH1 0x8 DUP1 SLOAD PUSH1 0x1 PUSH1 0x1 PUSH1 0xA0 SHL SUB NOT AND CALLER OR SWAP1 SSTORE PUSH1 0x1 PUSH1 0x1 PUSH1 0x40 SHL SUB SWAP1 SWAP4 AND PUSH1 0x1 PUSH1 0xA0 SHL MUL PUSH1 0x1 PUSH1 0x1 PUSH1 0xE0 SHL SUB NOT SWAP1 SWAP4 AND PUSH1 0x1 PUSH1 0x1 PUSH1 0xA0 SHL SUB SWAP1 SWAP3 AND SWAP2 SWAP1 SWAP2 OR SWAP2 SWAP1 SWAP2 OR SWAP1 SSTORE PUSH2 0x2AD JUMP JUMPDEST DUP3 DUP1 SLOAD DUP3 DUP3 SSTORE SWAP1 PUSH1 0x0 MSTORE PUSH1 0x20 PUSH1 0x0 KECCAK256 SWAP1 DUP2 ADD SWAP3 DUP3 ISZERO PUSH2 0x258 JUMPI SWAP2 PUSH1 0x20 MUL DUP3 ADD JUMPDEST DUP3 DUP2 GT ISZERO PUSH2 0x258 JUMPI DUP3 MLOAD DUP3 SWAP1 PUSH1 0x1 PUSH1 0x1 PUSH1 0x40 SHL SUB AND SWAP1 SSTORE SWAP2 PUSH1 0x20 ADD SWAP2 SWAP1 PUSH1 0x1 ADD SWAP1 PUSH2 0x232 JUMP JUMPDEST POP PUSH2 0x264 SWAP3 SWAP2 POP PUSH2 0x268 JUMP JUMPDEST POP SWAP1 JUMP JUMPDEST JUMPDEST DUP1 DUP3 GT ISZERO PUSH2 0x264 JUMPI PUSH1 0x0 DUP2 SSTORE PUSH1 0x1 ADD PUSH2 0x269 JUMP JUMPDEST PUSH1 0x0 PUSH1 0x20 DUP3 DUP5 SUB SLT ISZERO PUSH2 0x28F JUMPI PUSH1 0x0 DUP1 REVERT JUMPDEST DUP2 MLOAD PUSH1 0x1 PUSH1 0x1 PUSH1 0x40 SHL SUB DUP2 AND DUP2 EQ PUSH2 0x2A6 JUMPI PUSH1 0x0 DUP1 REVERT JUMPDEST SWAP4 SWAP3 POP POP POP JUMP JUMPDEST PUSH1 0x80 MLOAD PUSH1 0x60 SHR PUSH2 0xB3B PUSH2 0x2D2 PUSH1 0x0 CODECOPY PUSH1 0x0 DUP2 DUP2 PUSH2 0x267 ADD MSTORE PUSH2 0x2A9 ADD MSTORE PUSH2 0xB3B PUSH1 0x0 RETURN INVALID PUSH1 0x80 PUSH1 0x40 MSTORE PUSH1 0x4 CALLDATASIZE LT PUSH2 0xA2 JUMPI PUSH1 0x0 CALLDATALOAD PUSH1 0xE0 SHR DUP1 PUSH4 0x1FE543E3 EQ PUSH2 0xA7 JUMPI DUP1 PUSH4 0x3BED33CE EQ PUSH2 0xC9 JUMPI DUP1 PUSH4 0x3D18678E EQ PUSH2 0xE9 JUMPI DUP1 PUSH4 0x532950F4 EQ PUSH2 0x109 JUMPI DUP1 PUSH4 0x850A040C EQ PUSH2 0x13C JUMPI DUP1 PUSH4 0x8AC00021 EQ PUSH2 0x18A JUMPI DUP1 PUSH4 0x973A814E EQ PUSH2 0x1C9 JUMPI DUP1 PUSH4 0x9AF1D35A EQ PUSH2 0x1DF JUMPI DUP1 PUSH4 0xB2AE6901 EQ PUSH2 0x1F5 JUMPI DUP1 PUSH4 0xD8D40CEE EQ PUSH2 0x1FD JUMPI DUP1 PUSH4 0xE89E106A EQ PUSH2 0x213 JUMPI DUP1 PUSH4 0xF6EAFFC8 EQ PUSH2 0x229 JUMPI DUP1 PUSH4 0xFABAB065 EQ PUSH2 0x249 JUMPI JUMPDEST PUSH1 0x0 DUP1 REVERT JUMPDEST CALLVALUE DUP1 ISZERO PUSH2 0xB3 JUMPI PUSH1 0x0 DUP1 REVERT JUMPDEST POP PUSH2 0xC7 PUSH2 0xC2 CALLDATASIZE PUSH1 0x4 PUSH2 0x92B JUMP JUMPDEST PUSH2 0x25C JUMP JUMPDEST STOP JUMPDEST CALLVALUE DUP1 ISZERO PUSH2 0xD5 JUMPI PUSH1 0x0 DUP1 REVERT JUMPDEST POP PUSH2 0xC7 PUSH2 0xE4 CALLDATASIZE PUSH1 0x4 PUSH2 0x8F9 JUMP JUMPDEST PUSH2 0x2E9 JUMP JUMPDEST CALLVALUE DUP1 ISZERO PUSH2 0xF5 JUMPI PUSH1 0x0 DUP1 REVERT JUMPDEST POP PUSH2 0xC7 PUSH2 0x104 CALLDATASIZE PUSH1 0x4 PUSH2 0x8F9 JUMP JUMPDEST PUSH2 0x3C3 JUMP JUMPDEST CALLVALUE DUP1 ISZERO PUSH2 0x115 JUMPI PUSH1 0x0 DUP1 REVERT JUMPDEST POP PUSH2 0x129 PUSH2 0x124 CALLDATASIZE PUSH1 0x4 PUSH2 0x8F9 JUMP JUMPDEST PUSH2 0x3DF JUMP JUMPDEST PUSH1 0x40 MLOAD SWAP1 DUP2 MSTORE PUSH1 0x20 ADD JUMPDEST PUSH1 0x40 MLOAD DUP1 SWAP2 SUB SWAP1 RETURN JUMPDEST CALLVALUE DUP1 ISZERO PUSH2 0x148 JUMPI PUSH1 0x0 DUP1 REVERT JUMPDEST POP PUSH2 0x172 PUSH2 0x157 CALLDATASIZE PUSH1 0x4 PUSH2 0x8F9 JUMP JUMPDEST PUSH1 0x6 PUSH1 0x20 MSTORE PUSH1 0x0 SWAP1 DUP2 MSTORE PUSH1 0x40 SWAP1 KECCAK256 SLOAD PUSH1 0x1 PUSH1 0x1 PUSH1 0xA0 SHL SUB AND DUP2 JUMP JUMPDEST PUSH1 0x40 MLOAD PUSH1 0x1 PUSH1 0x1 PUSH1 0xA0 SHL SUB SWAP1 SWAP2 AND DUP2 MSTORE PUSH1 0x20 ADD PUSH2 0x133 JUMP JUMPDEST CALLVALUE DUP1 ISZERO PUSH2 0x196 JUMPI PUSH1 0x0 DUP1 REVERT JUMPDEST POP PUSH1 0x0 SLOAD PUSH2 0x1B1 SWAP1 PUSH1 0x1 PUSH1 0xA0 SHL SWAP1 DIV PUSH1 0x1 PUSH1 0x1 PUSH1 0x40 SHL SUB AND DUP2 JUMP JUMPDEST PUSH1 0x40 MLOAD PUSH1 0x1 PUSH1 0x1 PUSH1 0x40 SHL SUB SWAP1 SWAP2 AND DUP2 MSTORE PUSH1 0x20 ADD PUSH2 0x133 JUMP JUMPDEST CALLVALUE DUP1 ISZERO PUSH2 0x1D5 JUMPI PUSH1 0x0 DUP1 REVERT JUMPDEST POP PUSH2 0x129 PUSH1 0x7 SLOAD DUP2 JUMP JUMPDEST CALLVALUE DUP1 ISZERO PUSH2 0x1EB JUMPI PUSH1 0x0 DUP1 REVERT JUMPDEST POP PUSH2 0x129 PUSH1 0x9 SLOAD DUP2 JUMP JUMPDEST PUSH2 0xC7 PUSH2 0x400 JUMP JUMPDEST CALLVALUE DUP1 ISZERO PUSH2 0x209 JUMPI PUSH1 0x0 DUP1 REVERT JUMPDEST POP PUSH2 0x129 PUSH1 0xD SLOAD DUP2 JUMP JUMPDEST CALLVALUE DUP1 ISZERO PUSH2 0x21F JUMPI PUSH1 0x0 DUP1 REVERT JUMPDEST POP PUSH2 0x129 PUSH1 0x5 SLOAD DUP2 JUMP JUMPDEST CALLVALUE DUP1 ISZERO PUSH2 0x235 JUMPI PUSH1 0x0 DUP1 REVERT JUMPDEST POP PUSH2 0x129 PUSH2 0x244 CALLDATASIZE PUSH1 0x4 PUSH2 0x8F9 JUMP JUMPDEST PUSH2 0x444 JUMP JUMPDEST PUSH2 0xC7 PUSH2 0x257 CALLDATASIZE PUSH1 0x4 PUSH2 0x8F9 JUMP JUMPDEST PUSH2 0x454 JUMP JUMPDEST CALLER PUSH1 0x1 PUSH1 0x1 PUSH1 0xA0 SHL SUB PUSH32 0x0 AND EQ PUSH2 0x2DB JUMPI PUSH1 0x40 MLOAD PUSH4 0x73E64FD PUSH1 0xE2 SHL DUP2 MSTORE CALLER PUSH1 0x4 DUP3 ADD MSTORE PUSH1 0x1 PUSH1 0x1 PUSH1 0xA0 SHL SUB PUSH32 0x0 AND PUSH1 0x24 DUP3 ADD MSTORE PUSH1 0x44 ADD JUMPDEST PUSH1 0x40 MLOAD DUP1 SWAP2 SUB SWAP1 REVERT JUMPDEST PUSH2 0x2E5 DUP3 DUP3 PUSH2 0x4E8 JUMP JUMPDEST POP POP JUMP JUMPDEST PUSH1 0x8 SLOAD PUSH1 0x1 PUSH1 0x1 PUSH1 0xA0 SHL SUB AND CALLER EQ PUSH2 0x300 JUMPI PUSH1 0x0 DUP1 REVERT JUMPDEST PUSH1 0x0 SELFBALANCE GT PUSH2 0x350 JUMPI PUSH1 0x40 MLOAD PUSH3 0x461BCD PUSH1 0xE5 SHL DUP2 MSTORE PUSH1 0x20 PUSH1 0x4 DUP3 ADD MSTORE PUSH1 0x1F PUSH1 0x24 DUP3 ADD MSTORE PUSH32 0x5468657265206973206E6F2062616C616E636520746F20776974686472617700 PUSH1 0x44 DUP3 ADD MSTORE PUSH1 0x64 ADD PUSH2 0x2D2 JUMP JUMPDEST SELFBALANCE DUP2 LT PUSH2 0x396 JUMPI PUSH1 0x40 MLOAD PUSH3 0x461BCD PUSH1 0xE5 SHL DUP2 MSTORE PUSH1 0x20 PUSH1 0x4 DUP3 ADD MSTORE PUSH1 0x14 PUSH1 0x24 DUP3 ADD MSTORE PUSH20 0x496E73756666696369656E742062616C616E6365 PUSH1 0x60 SHL PUSH1 0x44 DUP3 ADD MSTORE PUSH1 0x64 ADD PUSH2 0x2D2 JUMP JUMPDEST PUSH1 0x40 MLOAD CALLER SWAP1 DUP3 ISZERO PUSH2 0x8FC MUL SWAP1 DUP4 SWAP1 PUSH1 0x0 DUP2 DUP2 DUP2 DUP6 DUP9 DUP9 CALL SWAP4 POP POP POP POP ISZERO DUP1 ISZERO PUSH2 0x2E5 JUMPI RETURNDATASIZE PUSH1 0x0 DUP1 RETURNDATACOPY RETURNDATASIZE PUSH1 0x0 REVERT JUMPDEST PUSH1 0x8 SLOAD PUSH1 0x1 PUSH1 0x1 PUSH1 0xA0 SHL SUB AND CALLER EQ PUSH2 0x3DA JUMPI PUSH1 0x0 DUP1 REVERT JUMPDEST PUSH1 0x9 SSTORE JUMP JUMPDEST PUSH1 0xC DUP2 DUP2 SLOAD DUP2 LT PUSH2 0x3EF JUMPI PUSH1 0x0 DUP1 REVERT JUMPDEST PUSH1 0x0 SWAP2 DUP3 MSTORE PUSH1 0x20 SWAP1 SWAP2 KECCAK256 ADD SLOAD SWAP1 POP DUP2 JUMP JUMPDEST PUSH1 0x9 SLOAD CALLVALUE LT ISZERO PUSH2 0x422 JUMPI PUSH1 0x40 MLOAD PUSH3 0x461BCD PUSH1 0xE5 SHL DUP2 MSTORE PUSH1 0x4 ADD PUSH2 0x2D2 SWAP1 PUSH2 0xA21 JUMP JUMPDEST PUSH1 0xA DUP1 SLOAD PUSH1 0x1 PUSH1 0x1 PUSH1 0xA0 SHL SUB NOT AND CALLER OR SWAP1 SSTORE PUSH1 0x2 PUSH1 0xD SSTORE PUSH2 0x441 PUSH2 0x5C7 JUMP JUMPDEST POP JUMP JUMPDEST PUSH1 0x4 DUP2 DUP2 SLOAD DUP2 LT PUSH2 0x3EF JUMPI PUSH1 0x0 DUP1 REVERT JUMPDEST PUSH1 0x9 SLOAD CALLVALUE LT ISZERO PUSH2 0x476 JUMPI PUSH1 0x40 MLOAD PUSH3 0x461BCD PUSH1 0xE5 SHL DUP2 MSTORE PUSH1 0x4 ADD PUSH2 0x2D2 SWAP1 PUSH2 0xA21 JUMP JUMPDEST PUSH1 0x25 DUP2 LT DUP1 ISZERO PUSH2 0x486 JUMPI POP PUSH1 0x0 DUP2 GT JUMPDEST PUSH2 0x4C4 JUMPI PUSH1 0x40 MLOAD PUSH3 0x461BCD PUSH1 0xE5 SHL DUP2 MSTORE PUSH1 0x20 PUSH1 0x4 DUP3 ADD MSTORE PUSH1 0xF PUSH1 0x24 DUP3 ADD MSTORE PUSH15 0x24B73B30B634B210373AB6B132B91 PUSH1 0x8D SHL PUSH1 0x44 DUP3 ADD MSTORE PUSH1 0x64 ADD PUSH2 0x2D2 JUMP JUMPDEST PUSH1 0xA DUP1 SLOAD PUSH1 0x1 PUSH1 0x1 PUSH1 0xA0 SHL SUB NOT AND CALLER OR SWAP1 SSTORE PUSH1 0xB DUP2 SWAP1 SSTORE PUSH1 0x1 PUSH1 0xD SSTORE PUSH2 0x2E5 PUSH2 0x5C7 JUMP JUMPDEST PUSH1 0x40 MLOAD DUP1 PUSH1 0x40 ADD PUSH1 0x40 MSTORE DUP1 PUSH1 0xB DUP4 PUSH1 0x0 DUP2 MLOAD DUP2 LT PUSH2 0x508 JUMPI PUSH2 0x508 PUSH2 0xAB9 JUMP JUMPDEST PUSH1 0x20 MUL PUSH1 0x20 ADD ADD MLOAD PUSH2 0x51A SWAP2 SWAP1 PUSH2 0xA81 JUMP JUMPDEST PUSH2 0x525 SWAP1 PUSH1 0x2 PUSH2 0xA52 JUMP JUMPDEST DUP2 MSTORE PUSH1 0x20 ADD PUSH1 0x24 DUP4 PUSH1 0x1 DUP2 MLOAD DUP2 LT PUSH2 0x53F JUMPI PUSH2 0x53F PUSH2 0xAB9 JUMP JUMPDEST PUSH1 0x20 MUL PUSH1 0x20 ADD ADD MLOAD PUSH2 0x551 SWAP2 SWAP1 PUSH2 0xA81 JUMP JUMPDEST PUSH2 0x55C SWAP1 PUSH1 0x1 PUSH2 0xA52 JUMP JUMPDEST SWAP1 MSTORE PUSH2 0x56C SWAP1 PUSH1 0x4 SWAP1 PUSH1 0x2 PUSH2 0x899 JUMP JUMPDEST POP PUSH1 0xD SLOAD PUSH1 0x1 EQ ISZERO PUSH2 0x5B4 JUMPI PUSH1 0x0 PUSH1 0xB SLOAD PUSH1 0x4 PUSH1 0x1 DUP2 SLOAD DUP2 LT PUSH2 0x591 JUMPI PUSH2 0x591 PUSH2 0xAB9 JUMP JUMPDEST SWAP1 PUSH1 0x0 MSTORE PUSH1 0x20 PUSH1 0x0 KECCAK256 ADD SLOAD EQ ISZERO PUSH2 0x5A6 JUMPI POP PUSH1 0x1 JUMPDEST PUSH2 0x5AF DUP2 PUSH2 0x6B6 JUMP JUMPDEST POP POP POP JUMP JUMPDEST PUSH1 0xD SLOAD PUSH1 0x2 EQ ISZERO PUSH2 0x2E5 JUMPI PUSH2 0x2E5 PUSH2 0x75F JUMP JUMPDEST PUSH1 0x0 DUP1 SLOAD PUSH1 0x2 SLOAD PUSH1 0x3 SLOAD PUSH1 0x40 MLOAD PUSH4 0x5D3B1D3 PUSH1 0xE4 SHL DUP2 MSTORE PUSH1 0x4 DUP2 ADD SWAP3 SWAP1 SWAP3 MSTORE PUSH1 0x1 PUSH1 0xA0 SHL DUP4 DIV PUSH1 0x1 PUSH1 0x1 PUSH1 0x40 SHL SUB AND PUSH1 0x24 DUP4 ADD MSTORE PUSH1 0x1 PUSH1 0x20 SHL DUP2 DIV PUSH2 0xFFFF AND PUSH1 0x44 DUP4 ADD MSTORE PUSH4 0xFFFFFFFF DUP1 DUP3 AND PUSH1 0x64 DUP5 ADD MSTORE PUSH1 0x1 PUSH1 0x30 SHL SWAP1 SWAP2 DIV AND PUSH1 0x84 DUP3 ADD MSTORE DUP3 SWAP2 PUSH1 0x1 PUSH1 0x1 PUSH1 0xA0 SHL SUB AND SWAP1 PUSH4 0x5D3B1D30 SWAP1 PUSH1 0xA4 ADD PUSH1 0x20 PUSH1 0x40 MLOAD DUP1 DUP4 SUB DUP2 PUSH1 0x0 DUP8 DUP1 EXTCODESIZE ISZERO DUP1 ISZERO PUSH2 0x655 JUMPI PUSH1 0x0 DUP1 REVERT JUMPDEST POP GAS CALL ISZERO DUP1 ISZERO PUSH2 0x669 JUMPI RETURNDATASIZE PUSH1 0x0 DUP1 RETURNDATACOPY RETURNDATASIZE PUSH1 0x0 REVERT JUMPDEST POP POP POP POP PUSH1 0x40 MLOAD RETURNDATASIZE PUSH1 0x1F NOT PUSH1 0x1F DUP3 ADD AND DUP3 ADD DUP1 PUSH1 0x40 MSTORE POP DUP2 ADD SWAP1 PUSH2 0x68D SWAP2 SWAP1 PUSH2 0x912 JUMP JUMPDEST PUSH1 0x0 DUP2 DUP2 MSTORE PUSH1 0x6 PUSH1 0x20 MSTORE PUSH1 0x40 SWAP1 KECCAK256 DUP1 SLOAD PUSH1 0x1 PUSH1 0x1 PUSH1 0xA0 SHL SUB NOT AND CALLER OR SWAP1 SSTORE PUSH1 0x5 DUP2 SWAP1 SSTORE SWAP3 SWAP2 POP POP JUMP JUMPDEST PUSH1 0xA SLOAD PUSH1 0x7 SLOAD PUSH1 0x4 DUP1 SLOAD PUSH32 0x7285E801159D73FF597FE8E8DF0523D831A36850C7379F3E0AB38B9D7051FE6 SWAP4 PUSH1 0x1 PUSH1 0x1 PUSH1 0xA0 SHL SUB AND SWAP3 SWAP2 SWAP1 PUSH1 0x1 SWAP1 DUP2 LT PUSH2 0x6FF JUMPI PUSH2 0x6FF PUSH2 0xAB9 JUMP JUMPDEST PUSH1 0x0 SWAP2 DUP3 MSTORE PUSH1 0x20 SWAP2 DUP3 SWAP1 KECCAK256 ADD SLOAD PUSH1 0xB SLOAD PUSH1 0x40 DUP1 MLOAD PUSH1 0x1 PUSH1 0x1 PUSH1 0xA0 SHL SUB SWAP1 SWAP7 AND DUP7 MSTORE SWAP3 DUP6 ADD SWAP4 SWAP1 SWAP4 MSTORE SWAP1 DUP4 ADD MSTORE PUSH1 0x60 DUP3 ADD MSTORE DUP3 ISZERO ISZERO PUSH1 0x80 DUP3 ADD MSTORE PUSH1 0xA0 ADD JUMPDEST PUSH1 0x40 MLOAD DUP1 SWAP2 SUB SWAP1 LOG1 PUSH1 0x1 PUSH1 0x7 PUSH1 0x0 DUP3 DUP3 SLOAD PUSH2 0x757 SWAP2 SWAP1 PUSH2 0xA52 JUMP JUMPDEST SWAP1 SWAP2 SSTORE POP POP POP JUMP JUMPDEST PUSH1 0x0 PUSH1 0xC PUSH1 0x1 PUSH1 0x4 PUSH1 0x0 DUP2 SLOAD DUP2 LT PUSH2 0x779 JUMPI PUSH2 0x779 PUSH2 0xAB9 JUMP JUMPDEST SWAP1 PUSH1 0x0 MSTORE PUSH1 0x20 PUSH1 0x0 KECCAK256 ADD SLOAD PUSH2 0x78E SWAP2 SWAP1 PUSH2 0xA6A JUMP JUMPDEST DUP2 SLOAD DUP2 LT PUSH2 0x79E JUMPI PUSH2 0x79E PUSH2 0xAB9 JUMP JUMPDEST SWAP1 PUSH1 0x0 MSTORE PUSH1 0x20 PUSH1 0x0 KECCAK256 ADD SLOAD SWAP1 POP DUP1 PUSH1 0x0 EQ PUSH2 0x848 JUMPI PUSH1 0xA SLOAD PUSH1 0x40 MLOAD PUSH1 0x1 PUSH1 0x1 PUSH1 0xA0 SHL SUB SWAP1 SWAP2 AND SWAP1 DUP3 ISZERO PUSH2 0x8FC MUL SWAP1 DUP4 SWAP1 PUSH1 0x0 DUP2 DUP2 DUP2 DUP6 DUP9 DUP9 CALL SWAP4 POP POP POP POP ISZERO DUP1 ISZERO PUSH2 0x7ED JUMPI RETURNDATASIZE PUSH1 0x0 DUP1 RETURNDATACOPY RETURNDATASIZE PUSH1 0x0 REVERT JUMPDEST POP PUSH1 0xA SLOAD PUSH1 0x7 SLOAD PUSH1 0x4 DUP1 SLOAD PUSH1 0x0 DUP1 MLOAD PUSH1 0x20 PUSH2 0xAE6 DUP4 CODECOPY DUP2 MLOAD SWAP2 MSTORE SWAP4 PUSH1 0x1 PUSH1 0x1 PUSH1 0xA0 SHL SUB AND SWAP3 SWAP2 SWAP1 PUSH1 0x0 SWAP1 PUSH2 0x823 JUMPI PUSH2 0x823 PUSH2 0xAB9 JUMP JUMPDEST SWAP1 PUSH1 0x0 MSTORE PUSH1 0x20 PUSH1 0x0 KECCAK256 ADD SLOAD DUP5 PUSH1 0x40 MLOAD PUSH2 0x83F SWAP5 SWAP4 SWAP3 SWAP2 SWAP1 PUSH2 0x9FB JUMP JUMPDEST PUSH1 0x40 MLOAD DUP1 SWAP2 SUB SWAP1 LOG1 JUMPDEST PUSH1 0xA SLOAD PUSH1 0x7 SLOAD PUSH1 0x4 DUP1 SLOAD PUSH1 0x0 DUP1 MLOAD PUSH1 0x20 PUSH2 0xAE6 DUP4 CODECOPY DUP2 MLOAD SWAP2 MSTORE SWAP4 PUSH1 0x1 PUSH1 0x1 PUSH1 0xA0 SHL SUB AND SWAP3 SWAP2 SWAP1 PUSH1 0x0 SWAP1 PUSH2 0x87D JUMPI PUSH2 0x87D PUSH2 0xAB9 JUMP JUMPDEST SWAP1 PUSH1 0x0 MSTORE PUSH1 0x20 PUSH1 0x0 KECCAK256 ADD SLOAD DUP5 PUSH1 0x40 MLOAD PUSH2 0x73C SWAP5 SWAP4 SWAP3 SWAP2 SWAP1 PUSH2 0x9FB JUMP JUMPDEST DUP3 DUP1 SLOAD DUP3 DUP3 SSTORE SWAP1 PUSH1 0x0 MSTORE PUSH1 0x20 PUSH1 0x0 KECCAK256 SWAP1 DUP2 ADD SWAP3 DUP3 ISZERO PUSH2 0x8D4 JUMPI SWAP2 PUSH1 0x20 MUL DUP3 ADD JUMPDEST DUP3 DUP2 GT ISZERO PUSH2 0x8D4 JUMPI DUP3 MLOAD DUP3 SSTORE SWAP2 PUSH1 0x20 ADD SWAP2 SWAP1 PUSH1 0x1 ADD SWAP1 PUSH2 0x8B9 JUMP JUMPDEST POP PUSH2 0x8E0 SWAP3 SWAP2 POP PUSH2 0x8E4 JUMP JUMPDEST POP SWAP1 JUMP JUMPDEST JUMPDEST DUP1 DUP3 GT ISZERO PUSH2 0x8E0 JUMPI PUSH1 0x0 DUP2 SSTORE PUSH1 0x1 ADD PUSH2 0x8E5 JUMP JUMPDEST PUSH1 0x0 PUSH1 0x20 DUP3 DUP5 SUB SLT ISZERO PUSH2 0x90B JUMPI PUSH1 0x0 DUP1 REVERT JUMPDEST POP CALLDATALOAD SWAP2 SWAP1 POP JUMP JUMPDEST PUSH1 0x0 PUSH1 0x20 DUP3 DUP5 SUB SLT ISZERO PUSH2 0x924 JUMPI PUSH1 0x0 DUP1 REVERT JUMPDEST POP MLOAD SWAP2 SWAP1 POP JUMP JUMPDEST PUSH1 0x0 DUP1 PUSH1 0x40 DUP4 DUP6 SUB SLT ISZERO PUSH2 0x93E JUMPI PUSH1 0x0 DUP1 REVERT JUMPDEST DUP3 CALLDATALOAD SWAP2 POP PUSH1 0x20 DUP1 DUP5 ADD CALLDATALOAD PUSH1 0x1 PUSH1 0x1 PUSH1 0x40 SHL SUB DUP1 DUP3 GT ISZERO PUSH2 0x95D JUMPI PUSH1 0x0 DUP1 REVERT JUMPDEST DUP2 DUP7 ADD SWAP2 POP DUP7 PUSH1 0x1F DUP4 ADD SLT PUSH2 0x971 JUMPI PUSH1 0x0 DUP1 REVERT JUMPDEST DUP2 CALLDATALOAD DUP2 DUP2 GT ISZERO PUSH2 0x983 JUMPI PUSH2 0x983 PUSH2 0xACF JUMP JUMPDEST DUP1 PUSH1 0x5 SHL PUSH1 0x40 MLOAD PUSH1 0x1F NOT PUSH1 0x3F DUP4 ADD AND DUP2 ADD DUP2 DUP2 LT DUP6 DUP3 GT OR ISZERO PUSH2 0x9A8 JUMPI PUSH2 0x9A8 PUSH2 0xACF JUMP JUMPDEST PUSH1 0x40 MSTORE DUP3 DUP2 MSTORE DUP6 DUP2 ADD SWAP4 POP DUP5 DUP7 ADD DUP3 DUP7 ADD DUP8 ADD DUP12 LT ISZERO PUSH2 0x9C7 JUMPI PUSH1 0x0 DUP1 REVERT JUMPDEST PUSH1 0x0 SWAP6 POP JUMPDEST DUP4 DUP7 LT ISZERO PUSH2 0x9EA JUMPI DUP1 CALLDATALOAD DUP6 MSTORE PUSH1 0x1 SWAP6 SWAP1 SWAP6 ADD SWAP5 SWAP4 DUP7 ADD SWAP4 DUP7 ADD PUSH2 0x9CC JUMP JUMPDEST POP DUP1 SWAP7 POP POP POP POP POP POP POP SWAP3 POP SWAP3 SWAP1 POP JUMP JUMPDEST PUSH1 0x1 PUSH1 0x1 PUSH1 0xA0 SHL SUB SWAP5 SWAP1 SWAP5 AND DUP5 MSTORE PUSH1 0x20 DUP5 ADD SWAP3 SWAP1 SWAP3 MSTORE PUSH1 0x40 DUP4 ADD MSTORE PUSH1 0x60 DUP3 ADD MSTORE PUSH1 0x80 ADD SWAP1 JUMP JUMPDEST PUSH1 0x20 DUP1 DUP3 MSTORE PUSH1 0x17 SWAP1 DUP3 ADD MSTORE PUSH23 0x536F7272792C206E65656420746F20706179206D6F7265 PUSH1 0x48 SHL PUSH1 0x40 DUP3 ADD MSTORE PUSH1 0x60 ADD SWAP1 JUMP JUMPDEST PUSH1 0x0 DUP3 NOT DUP3 GT ISZERO PUSH2 0xA65 JUMPI PUSH2 0xA65 PUSH2 0xAA3 JUMP JUMPDEST POP ADD SWAP1 JUMP JUMPDEST PUSH1 0x0 DUP3 DUP3 LT ISZERO PUSH2 0xA7C JUMPI PUSH2 0xA7C PUSH2 0xAA3 JUMP JUMPDEST POP SUB SWAP1 JUMP JUMPDEST PUSH1 0x0 DUP3 PUSH2 0xA9E JUMPI PUSH4 0x4E487B71 PUSH1 0xE0 SHL PUSH1 0x0 MSTORE PUSH1 0x12 PUSH1 0x4 MSTORE PUSH1 0x24 PUSH1 0x0 REVERT JUMPDEST POP MOD SWAP1 JUMP JUMPDEST PUSH4 0x4E487B71 PUSH1 0xE0 SHL PUSH1 0x0 MSTORE PUSH1 0x11 PUSH1 0x4 MSTORE PUSH1 0x24 PUSH1 0x0 REVERT JUMPDEST PUSH4 0x4E487B71 PUSH1 0xE0 SHL PUSH1 0x0 MSTORE PUSH1 0x32 PUSH1 0x4 MSTORE PUSH1 0x24 PUSH1 0x0 REVERT JUMPDEST PUSH4 0x4E487B71 PUSH1 0xE0 SHL PUSH1 0x0 MSTORE PUSH1 0x41 PUSH1 0x4 MSTORE PUSH1 0x24 PUSH1 0x0 REVERT INVALID PUSH30 0x65A677C9F5AE17458F5384DB1AAF4C9FAF890FCE5E3C04C55C243127BD0D PUSH29 0xA26469706673582212200DFD1BD7A1C558D1ACDA2D95A2424F109A815A DUP16 ADDRESS 0x4F 0xBC RETURNDATACOPY 0xD6 0x2C SWAP5 0xEF EQ CHAINID 0xE1 BYTE PUSH5 0x736F6C6343 STOP ADDMOD SMOD STOP CALLER "},"methodIdentifiers":{"fees()":"9af1d35a","gameNumber()":"d8d40cee","getRandomDiceNumber()":"b2ae6901","rawFulfillRandomWords(uint256,uint256[])":"1fe543e3","requestCounter()":"973a814e","rewardsArray(uint256)":"532950f4","s_randomWords(uint256)":"f6eaffc8","s_requestId()":"e89e106a","s_requestIdToAddress(uint256)":"850a040c","s_subscriptionId()":"8ac00021","setFees(uint256)":"3d18678e","tryYourLuck(uint256)":"fabab065","withdrawEther(uint256)":"3bed33ce"}}}}}