{
  "_format": "hh-sol-artifact-1",
  "contractName": "lottery",
  "sourceName": "contracts/lottery.sol",
  "abi": [
    {
      "inputs": [
        {
          "internalType": "uint64",
          "name": "subscriptionId",
          "type": "uint64"
        }
      ],
      "stateMutability": "nonpayable",
      "type": "constructor"
    },
    {
      "inputs": [
        {
          "internalType": "address",
          "name": "have",
          "type": "address"
        },
        {
          "internalType": "address",
          "name": "want",
          "type": "address"
        }
      ],
      "name": "OnlyCoordinatorCanFulfill",
      "type": "error"
    },
    {
      "anonymous": false,
      "inputs": [
        {
          "indexed": false,
          "internalType": "address",
          "name": "better",
          "type": "address"
        },
        {
          "indexed": false,
          "internalType": "uint256",
          "name": "counter",
          "type": "uint256"
        },
        {
          "indexed": false,
          "internalType": "uint256[]",
          "name": "randomNumber",
          "type": "uint256[]"
        },
        {
          "indexed": false,
          "internalType": "uint256",
          "name": "betNumber",
          "type": "uint256"
        },
        {
          "indexed": false,
          "internalType": "bool",
          "name": "isWinner",
          "type": "bool"
        }
      ],
      "name": "EventGetResultGameOne",
      "type": "event"
    },
    {
      "anonymous": false,
      "inputs": [
        {
          "indexed": false,
          "internalType": "address",
          "name": "better",
          "type": "address"
        },
        {
          "indexed": false,
          "internalType": "uint256",
          "name": "counter",
          "type": "uint256"
        },
        {
          "indexed": false,
          "internalType": "uint256",
          "name": "randomNumber",
          "type": "uint256"
        }
      ],
      "name": "EventGetResultGameTwo",
      "type": "event"
    },
    {
      "inputs": [],
      "name": "fees",
      "outputs": [
        {
          "internalType": "uint256",
          "name": "",
          "type": "uint256"
        }
      ],
      "stateMutability": "view",
      "type": "function"
    },
    {
      "inputs": [],
      "name": "gameNumber",
      "outputs": [
        {
          "internalType": "uint256",
          "name": "",
          "type": "uint256"
        }
      ],
      "stateMutability": "view",
      "type": "function"
    },
    {
      "inputs": [],
      "name": "getRandomDiceNumber",
      "outputs": [],
      "stateMutability": "payable",
      "type": "function"
    },
    {
      "inputs": [
        {
          "internalType": "uint256",
          "name": "requestId",
          "type": "uint256"
        },
        {
          "internalType": "uint256[]",
          "name": "randomWords",
          "type": "uint256[]"
        }
      ],
      "name": "rawFulfillRandomWords",
      "outputs": [],
      "stateMutability": "nonpayable",
      "type": "function"
    },
    {
      "inputs": [],
      "name": "requestCounter",
      "outputs": [
        {
          "internalType": "uint256",
          "name": "",
          "type": "uint256"
        }
      ],
      "stateMutability": "view",
      "type": "function"
    },
    {
      "inputs": [
        {
          "internalType": "uint256",
          "name": "",
          "type": "uint256"
        }
      ],
      "name": "s_randomWords",
      "outputs": [
        {
          "internalType": "uint256",
          "name": "",
          "type": "uint256"
        }
      ],
      "stateMutability": "view",
      "type": "function"
    },
    {
      "inputs": [],
      "name": "s_requestId",
      "outputs": [
        {
          "internalType": "uint256",
          "name": "",
          "type": "uint256"
        }
      ],
      "stateMutability": "view",
      "type": "function"
    },
    {
      "inputs": [
        {
          "internalType": "uint256",
          "name": "",
          "type": "uint256"
        }
      ],
      "name": "s_requestIdToAddress",
      "outputs": [
        {
          "internalType": "address",
          "name": "",
          "type": "address"
        }
      ],
      "stateMutability": "view",
      "type": "function"
    },
    {
      "inputs": [],
      "name": "s_subscriptionId",
      "outputs": [
        {
          "internalType": "uint64",
          "name": "",
          "type": "uint64"
        }
      ],
      "stateMutability": "view",
      "type": "function"
    },
    {
      "inputs": [
        {
          "internalType": "uint256",
          "name": "_fee",
          "type": "uint256"
        }
      ],
      "name": "setFees",
      "outputs": [],
      "stateMutability": "nonpayable",
      "type": "function"
    },
    {
      "inputs": [
        {
          "internalType": "uint256",
          "name": "number",
          "type": "uint256"
        }
      ],
      "name": "tryYourLuck",
      "outputs": [],
      "stateMutability": "payable",
      "type": "function"
    },
    {
      "inputs": [
        {
          "internalType": "uint256",
          "name": "amount",
          "type": "uint256"
        }
      ],
      "name": "withdrawEther",
      "outputs": [],
      "stateMutability": "nonpayable",
      "type": "function"
    }
  ],
  "bytecode": "0x600180546001600160a01b031916737a1bac17ccc5b313516c5e16fb24f7659aa5ebed1790557f4b09e658ed251bcafeebbc69400383d49f344ace09b9576fe248bb02c003fe9f600255600380546603000300030d406001600160501b031990911617905567016345785d8a0000600955610520604052600060a081815260c08290526702c68af0bb14000060e0526101008290526706f05b59d3b20000610120526101408290526101608290526101808290526101a08290526101c08290526101e08290526102008290526102208290526102408290526102608290526102808290526102a08290526102c0829052670b1a2bc2ec5000006102e052610300829052610320829052610340829052610360829052610380829052671bc16d674ec800006103a0526103c08290526103e08290526104008290526104208290526104408290526104608290526104808290526710a741a4627800006104a0526104c08290526104e08290526105009190915261017f90600c906024610212565b506000600d5534801561019157600080fd5b50604051610ddc380380610ddc8339810160408190526101b09161027d565b6001546001600160601b0319606082901b1660805260008054600880546001600160a01b031916331790556001600160401b03909316600160a01b026001600160e01b03199093166001600160a01b03909216919091179190911790556102ad565b828054828255906000526020600020908101928215610258579160200282015b8281111561025857825182906001600160401b0316905591602001919060010190610232565b50610264929150610268565b5090565b5b808211156102645760008155600101610269565b60006020828403121561028f57600080fd5b81516001600160401b03811681146102a657600080fd5b9392505050565b60805160601c610b0a6102d26000396000818161023c015261027e0152610b0a6000f3fe6080604052600436106100975760003560e01c80631fe543e31461009c5780633bed33ce146100be5780633d18678e146100de578063850a040c146100fe5780638ac0002114610151578063973a814e146101905780639af1d35a146101b4578063b2ae6901146101ca578063d8d40cee146101d2578063e89e106a146101e8578063f6eaffc8146101fe578063fabab0651461021e575b600080fd5b3480156100a857600080fd5b506100bc6100b73660046108cf565b610231565b005b3480156100ca57600080fd5b506100bc6100d936600461089d565b6102be565b3480156100ea57600080fd5b506100bc6100f936600461089d565b610398565b34801561010a57600080fd5b5061013461011936600461089d565b6006602052600090815260409020546001600160a01b031681565b6040516001600160a01b0390911681526020015b60405180910390f35b34801561015d57600080fd5b5060005461017890600160a01b90046001600160401b031681565b6040516001600160401b039091168152602001610148565b34801561019c57600080fd5b506101a660075481565b604051908152602001610148565b3480156101c057600080fd5b506101a660095481565b6100bc6103b4565b3480156101de57600080fd5b506101a6600d5481565b3480156101f457600080fd5b506101a660055481565b34801561020a57600080fd5b506101a661021936600461089d565b6103f8565b6100bc61022c36600461089d565b610419565b336001600160a01b037f000000000000000000000000000000000000000000000000000000000000000016146102b05760405163073e64fd60e21b81523360048201526001600160a01b037f00000000000000000000000000000000000000000000000000000000000000001660248201526044015b60405180910390fd5b6102ba82826104ad565b5050565b6008546001600160a01b031633146102d557600080fd5b600047116103255760405162461bcd60e51b815260206004820152601f60248201527f5468657265206973206e6f2062616c616e636520746f2077697468647261770060448201526064016102a7565b47811061036b5760405162461bcd60e51b8152602060048201526014602482015273496e73756666696369656e742062616c616e636560601b60448201526064016102a7565b604051339082156108fc029083906000818181858888f193505050501580156102ba573d6000803e3d6000fd5b6008546001600160a01b031633146103af57600080fd5b600955565b6009543410156103d65760405162461bcd60e51b81526004016102a790610a10565b600a80546001600160a01b031916331790556002600d556103f56105c3565b50565b6004818154811061040857600080fd5b600091825260209091200154905081565b60095434101561043b5760405162461bcd60e51b81526004016102a790610a10565b60258110801561044b5750600081115b6104895760405162461bcd60e51b815260206004820152600f60248201526e024b73b30b634b210373ab6b132b91608d1b60448201526064016102a7565b600a80546001600160a01b03191633179055600b8190556001600d556102ba6105c3565b60405180606001604052806024836000815181106104cd576104cd610aa8565b60200260200101516104df9190610a70565b6104ea906001610a41565b815260200160248360018151811061050457610504610aa8565b60200260200101516105169190610a70565b610521906001610a41565b815260200160248360028151811061053b5761053b610aa8565b602002602001015161054d9190610a70565b610558906001610a41565b905261056890600490600361083d565b50600d54600114156105b0576000600b54600460008154811061058d5761058d610aa8565b906000526020600020015414156105a2575060015b6105ab816106b2565b505050565b600d54600214156102ba576102ba610720565b600080546002546003546040516305d3b1d360e41b81526004810192909252600160a01b83046001600160401b03166024830152600160201b810461ffff16604483015263ffffffff8082166064840152600160301b90910416608482015282916001600160a01b031690635d3b1d309060a401602060405180830381600087803b15801561065157600080fd5b505af1158015610665573d6000803e3d6000fd5b505050506040513d601f19601f8201168201806040525081019061068991906108b6565b600081815260066020526040902080546001600160a01b03191633179055600581905592915050565b600a54600754600b546040517fc5bc7c087a732906b974514253be147df2a5071aa5af980e2c5653ccda093568936106fd936001600160a01b0390911692909160049190879061099f565b60405180910390a16001600760008282546107189190610a41565b909155505050565b600a54600754600480547f35b800446e3e04647a1a02f777db419e251eaba7cca1f74e3e0d6f551cf2e913936001600160a01b031692919060009061076757610767610aa8565b60009182526020918290200154604080516001600160a01b0390951685529184019290925282015260600160405180910390a16000600c600160046000815481106107b4576107b4610aa8565b90600052602060002001546107c99190610a59565b815481106107d9576107d9610aa8565b906000526020600020015490508060001461082a57600a546040516001600160a01b039091169082156108fc029083906000818181858888f19350505050158015610828573d6000803e3d6000fd5b505b6001600760008282546107189190610a41565b828054828255906000526020600020908101928215610878579160200282015b8281111561087857825182559160200191906001019061085d565b50610884929150610888565b5090565b5b808211156108845760008155600101610889565b6000602082840312156108af57600080fd5b5035919050565b6000602082840312156108c857600080fd5b5051919050565b600080604083850312156108e257600080fd5b823591506020808401356001600160401b038082111561090157600080fd5b818601915086601f83011261091557600080fd5b81358181111561092757610927610abe565b8060051b604051601f19603f8301168101818110858211171561094c5761094c610abe565b604052828152858101935084860182860187018b101561096b57600080fd5b600095505b8386101561098e578035855260019590950194938601938601610970565b508096505050505050509250929050565b6001600160a01b0386168152602080820186905260a060408301819052855490830181905260008681528281209092909160c0850190845b818110156109f3578454835260019485019492840192016109d7565b505060608501969096525050509015156080909101529392505050565b602080825260179082015276536f7272792c206e65656420746f20706179206d6f726560481b604082015260600190565b60008219821115610a5457610a54610a92565b500190565b600082821015610a6b57610a6b610a92565b500390565b600082610a8d57634e487b7160e01b600052601260045260246000fd5b500690565b634e487b7160e01b600052601160045260246000fd5b634e487b7160e01b600052603260045260246000fd5b634e487b7160e01b600052604160045260246000fdfea26469706673582212204d88e1ece826afa39274a40e684859d7ef0d760e32464baae36f976b61e1994064736f6c63430008070033",
  "linkReferences": {},
  "deployedLinkReferences": {}
}