{
  "_format": "hh-sol-artifact-1",
  "contractName": "lottery",
  "sourceName": "contracts/lottery.sol",
  "abi": [
    {
      "inputs": [
        {
          "internalType": "uint64",
          "name": "subscriptionId",
          "type": "uint64"
        }
      ],
      "stateMutability": "nonpayable",
      "type": "constructor"
    },
    {
      "inputs": [
        {
          "internalType": "address",
          "name": "have",
          "type": "address"
        },
        {
          "internalType": "address",
          "name": "want",
          "type": "address"
        }
      ],
      "name": "OnlyCoordinatorCanFulfill",
      "type": "error"
    },
    {
      "anonymous": false,
      "inputs": [
        {
          "indexed": false,
          "internalType": "address",
          "name": "better",
          "type": "address"
        },
        {
          "indexed": false,
          "internalType": "uint256",
          "name": "counter",
          "type": "uint256"
        },
        {
          "indexed": false,
          "internalType": "uint256",
          "name": "randomNumber",
          "type": "uint256"
        },
        {
          "indexed": false,
          "internalType": "uint256",
          "name": "betNumber",
          "type": "uint256"
        },
        {
          "indexed": false,
          "internalType": "bool",
          "name": "isWinner",
          "type": "bool"
        }
      ],
      "name": "EventGetResultGameOne",
      "type": "event"
    },
    {
      "anonymous": false,
      "inputs": [
        {
          "indexed": false,
          "internalType": "address",
          "name": "better",
          "type": "address"
        },
        {
          "indexed": false,
          "internalType": "uint256",
          "name": "counter",
          "type": "uint256"
        },
        {
          "indexed": false,
          "internalType": "uint256",
          "name": "randomNumber",
          "type": "uint256"
        },
        {
          "indexed": false,
          "internalType": "uint256",
          "name": "reward",
          "type": "uint256"
        }
      ],
      "name": "EventGetResultGameTwo",
      "type": "event"
    },
    {
      "inputs": [],
      "name": "fees",
      "outputs": [
        {
          "internalType": "uint256",
          "name": "",
          "type": "uint256"
        }
      ],
      "stateMutability": "view",
      "type": "function"
    },
    {
      "inputs": [],
      "name": "gameNumber",
      "outputs": [
        {
          "internalType": "uint256",
          "name": "",
          "type": "uint256"
        }
      ],
      "stateMutability": "view",
      "type": "function"
    },
    {
      "inputs": [],
      "name": "getRandomDiceNumber",
      "outputs": [],
      "stateMutability": "payable",
      "type": "function"
    },
    {
      "inputs": [
        {
          "internalType": "uint256",
          "name": "requestId",
          "type": "uint256"
        },
        {
          "internalType": "uint256[]",
          "name": "randomWords",
          "type": "uint256[]"
        }
      ],
      "name": "rawFulfillRandomWords",
      "outputs": [],
      "stateMutability": "nonpayable",
      "type": "function"
    },
    {
      "inputs": [],
      "name": "requestCounter",
      "outputs": [
        {
          "internalType": "uint256",
          "name": "",
          "type": "uint256"
        }
      ],
      "stateMutability": "view",
      "type": "function"
    },
    {
      "inputs": [
        {
          "internalType": "uint256",
          "name": "",
          "type": "uint256"
        }
      ],
      "name": "rewardsArray",
      "outputs": [
        {
          "internalType": "uint256",
          "name": "",
          "type": "uint256"
        }
      ],
      "stateMutability": "view",
      "type": "function"
    },
    {
      "inputs": [
        {
          "internalType": "uint256",
          "name": "",
          "type": "uint256"
        }
      ],
      "name": "s_randomWords",
      "outputs": [
        {
          "internalType": "uint256",
          "name": "",
          "type": "uint256"
        }
      ],
      "stateMutability": "view",
      "type": "function"
    },
    {
      "inputs": [],
      "name": "s_requestId",
      "outputs": [
        {
          "internalType": "uint256",
          "name": "",
          "type": "uint256"
        }
      ],
      "stateMutability": "view",
      "type": "function"
    },
    {
      "inputs": [
        {
          "internalType": "uint256",
          "name": "",
          "type": "uint256"
        }
      ],
      "name": "s_requestIdToAddress",
      "outputs": [
        {
          "internalType": "address",
          "name": "",
          "type": "address"
        }
      ],
      "stateMutability": "view",
      "type": "function"
    },
    {
      "inputs": [],
      "name": "s_subscriptionId",
      "outputs": [
        {
          "internalType": "uint64",
          "name": "",
          "type": "uint64"
        }
      ],
      "stateMutability": "view",
      "type": "function"
    },
    {
      "inputs": [
        {
          "internalType": "uint256",
          "name": "_fee",
          "type": "uint256"
        }
      ],
      "name": "setFees",
      "outputs": [],
      "stateMutability": "nonpayable",
      "type": "function"
    },
    {
      "inputs": [
        {
          "internalType": "uint256",
          "name": "number",
          "type": "uint256"
        }
      ],
      "name": "tryYourLuck",
      "outputs": [],
      "stateMutability": "payable",
      "type": "function"
    },
    {
      "inputs": [
        {
          "internalType": "uint256",
          "name": "amount",
          "type": "uint256"
        }
      ],
      "name": "withdrawEther",
      "outputs": [],
      "stateMutability": "nonpayable",
      "type": "function"
    }
  ],
  "bytecode": "0x600180546001600160a01b031916737a1bac17ccc5b313516c5e16fb24f7659aa5ebed1790557f4b09e658ed251bcafeebbc69400383d49f344ace09b9576fe248bb02c003fe9f600255600380546602000300030d406001600160501b031990911617905567016345785d8a0000600955610520604052600060a081815260c08290526702c68af0bb14000060e0526101008290526706f05b59d3b20000610120526101408290526101608290526101808290526101a08290526101c08290526101e08290526102008290526102208290526102408290526102608290526102808290526102a08290526102c0829052670b1a2bc2ec5000006102e052610300829052610320829052610340829052610360829052610380829052671bc16d674ec800006103a0526103c08290526103e08290526104008290526104208290526104408290526104608290526104808290526710a741a4627800006104a0526104c08290526104e08290526105009190915261017f90600c906024610212565b506000600d5534801561019157600080fd5b50604051610e0d380380610e0d8339810160408190526101b09161027d565b6001546001600160601b0319606082901b1660805260008054600880546001600160a01b031916331790556001600160401b03909316600160a01b026001600160e01b03199093166001600160a01b03909216919091179190911790556102ad565b828054828255906000526020600020908101928215610258579160200282015b8281111561025857825182906001600160401b0316905591602001919060010190610232565b50610264929150610268565b5090565b5b808211156102645760008155600101610269565b60006020828403121561028f57600080fd5b81516001600160401b03811681146102a657600080fd5b9392505050565b60805160601c610b3b6102d26000396000818161026701526102a90152610b3b6000f3fe6080604052600436106100a25760003560e01c80631fe543e3146100a75780633bed33ce146100c95780633d18678e146100e9578063532950f414610109578063850a040c1461013c5780638ac000211461018a578063973a814e146101c95780639af1d35a146101df578063b2ae6901146101f5578063d8d40cee146101fd578063e89e106a14610213578063f6eaffc814610229578063fabab06514610249575b600080fd5b3480156100b357600080fd5b506100c76100c236600461092b565b61025c565b005b3480156100d557600080fd5b506100c76100e43660046108f9565b6102e9565b3480156100f557600080fd5b506100c76101043660046108f9565b6103c3565b34801561011557600080fd5b506101296101243660046108f9565b6103df565b6040519081526020015b60405180910390f35b34801561014857600080fd5b506101726101573660046108f9565b6006602052600090815260409020546001600160a01b031681565b6040516001600160a01b039091168152602001610133565b34801561019657600080fd5b506000546101b190600160a01b90046001600160401b031681565b6040516001600160401b039091168152602001610133565b3480156101d557600080fd5b5061012960075481565b3480156101eb57600080fd5b5061012960095481565b6100c7610400565b34801561020957600080fd5b50610129600d5481565b34801561021f57600080fd5b5061012960055481565b34801561023557600080fd5b506101296102443660046108f9565b610444565b6100c76102573660046108f9565b610454565b336001600160a01b037f000000000000000000000000000000000000000000000000000000000000000016146102db5760405163073e64fd60e21b81523360048201526001600160a01b037f00000000000000000000000000000000000000000000000000000000000000001660248201526044015b60405180910390fd5b6102e582826104e8565b5050565b6008546001600160a01b0316331461030057600080fd5b600047116103505760405162461bcd60e51b815260206004820152601f60248201527f5468657265206973206e6f2062616c616e636520746f2077697468647261770060448201526064016102d2565b4781106103965760405162461bcd60e51b8152602060048201526014602482015273496e73756666696369656e742062616c616e636560601b60448201526064016102d2565b604051339082156108fc029083906000818181858888f193505050501580156102e5573d6000803e3d6000fd5b6008546001600160a01b031633146103da57600080fd5b600955565b600c81815481106103ef57600080fd5b600091825260209091200154905081565b6009543410156104225760405162461bcd60e51b81526004016102d290610a21565b600a80546001600160a01b031916331790556002600d556104416105c7565b50565b600481815481106103ef57600080fd5b6009543410156104765760405162461bcd60e51b81526004016102d290610a21565b6025811080156104865750600081115b6104c45760405162461bcd60e51b815260206004820152600f60248201526e024b73b30b634b210373ab6b132b91608d1b60448201526064016102d2565b600a80546001600160a01b03191633179055600b8190556001600d556102e56105c7565b6040518060400160405280600b8360008151811061050857610508610ab9565b602002602001015161051a9190610a81565b610525906002610a52565b815260200160248360018151811061053f5761053f610ab9565b60200260200101516105519190610a81565b61055c906001610a52565b905261056c906004906002610899565b50600d54600114156105b4576000600b54600460018154811061059157610591610ab9565b906000526020600020015414156105a6575060015b6105af816106b6565b505050565b600d54600214156102e5576102e561075f565b600080546002546003546040516305d3b1d360e41b81526004810192909252600160a01b83046001600160401b03166024830152600160201b810461ffff16604483015263ffffffff8082166064840152600160301b90910416608482015282916001600160a01b031690635d3b1d309060a401602060405180830381600087803b15801561065557600080fd5b505af1158015610669573d6000803e3d6000fd5b505050506040513d601f19601f8201168201806040525081019061068d9190610912565b600081815260066020526040902080546001600160a01b03191633179055600581905592915050565b600a54600754600480547f07285e801159d73ff597fe8e8df0523d831a36850c7379f3e0ab38b9d7051fe6936001600160a01b031692919060019081106106ff576106ff610ab9565b60009182526020918290200154600b54604080516001600160a01b03909616865292850193909352908301526060820152821515608082015260a0015b60405180910390a16001600760008282546107579190610a52565b909155505050565b6000600c6001600460008154811061077957610779610ab9565b906000526020600020015461078e9190610a6a565b8154811061079e5761079e610ab9565b906000526020600020015490508060001461084857600a546040516001600160a01b039091169082156108fc029083906000818181858888f193505050501580156107ed573d6000803e3d6000fd5b50600a5460075460048054600080516020610ae6833981519152936001600160a01b031692919060009061082357610823610ab9565b90600052602060002001548460405161083f94939291906109fb565b60405180910390a15b600a5460075460048054600080516020610ae6833981519152936001600160a01b031692919060009061087d5761087d610ab9565b90600052602060002001548460405161073c94939291906109fb565b8280548282559060005260206000209081019282156108d4579160200282015b828111156108d45782518255916020019190600101906108b9565b506108e09291506108e4565b5090565b5b808211156108e057600081556001016108e5565b60006020828403121561090b57600080fd5b5035919050565b60006020828403121561092457600080fd5b5051919050565b6000806040838503121561093e57600080fd5b823591506020808401356001600160401b038082111561095d57600080fd5b818601915086601f83011261097157600080fd5b81358181111561098357610983610acf565b8060051b604051601f19603f830116810181811085821117156109a8576109a8610acf565b604052828152858101935084860182860187018b10156109c757600080fd5b600095505b838610156109ea5780358552600195909501949386019386016109cc565b508096505050505050509250929050565b6001600160a01b0394909416845260208401929092526040830152606082015260800190565b602080825260179082015276536f7272792c206e65656420746f20706179206d6f726560481b604082015260600190565b60008219821115610a6557610a65610aa3565b500190565b600082821015610a7c57610a7c610aa3565b500390565b600082610a9e57634e487b7160e01b600052601260045260246000fd5b500690565b634e487b7160e01b600052601160045260246000fd5b634e487b7160e01b600052603260045260246000fd5b634e487b7160e01b600052604160045260246000fdfe7d65a677c9f5ae17458f5384db1aaf4c9faf890fce5e3c04c55c243127bd0d7ca26469706673582212200dfd1bd7a1c558d1acda2d95a2424f109a815a8f304fbc3ed62c94ef1446e11a64736f6c63430008070033",
  "linkReferences": {},
  "deployedLinkReferences": {}
}